{
  "_format": "hh-sol-artifact-1",
  "contractName": "PatientDataWithIPFS",
  "sourceName": "contracts/PatientDataWithIPFS.sol",
  "abi": [
    {
      "inputs": [
        {
          "internalType": "address",
          "name": "initialOwner",
          "type": "address"
        }
      ],
      "stateMutability": "nonpayable",
      "type": "constructor"
    },
    {
      "inputs": [
        {
          "internalType": "address",
          "name": "owner",
          "type": "address"
        }
      ],
      "name": "OwnableInvalidOwner",
      "type": "error"
    },
    {
      "inputs": [
        {
          "internalType": "address",
          "name": "account",
          "type": "address"
        }
      ],
      "name": "OwnableUnauthorizedAccount",
      "type": "error"
    },
    {
      "anonymous": false,
      "inputs": [
        {
          "indexed": true,
          "internalType": "address",
          "name": "patientAddress",
          "type": "address"
        },
        {
          "indexed": false,
          "internalType": "string",
          "name": "ipfsHash",
          "type": "string"
        }
      ],
      "name": "IPFSHashSet",
      "type": "event"
    },
    {
      "anonymous": false,
      "inputs": [
        {
          "indexed": true,
          "internalType": "address",
          "name": "previousOwner",
          "type": "address"
        },
        {
          "indexed": true,
          "internalType": "address",
          "name": "newOwner",
          "type": "address"
        }
      ],
      "name": "OwnershipTransferred",
      "type": "event"
    },
    {
      "inputs": [
        {
          "internalType": "address",
          "name": "_patientAddress",
          "type": "address"
        }
      ],
      "name": "getIPFSHash",
      "outputs": [
        {
          "internalType": "string",
          "name": "",
          "type": "string"
        }
      ],
      "stateMutability": "view",
      "type": "function"
    },
    {
      "inputs": [],
      "name": "owner",
      "outputs": [
        {
          "internalType": "address",
          "name": "",
          "type": "address"
        }
      ],
      "stateMutability": "view",
      "type": "function"
    },
    {
      "inputs": [],
      "name": "renounceOwnership",
      "outputs": [],
      "stateMutability": "nonpayable",
      "type": "function"
    },
    {
      "inputs": [
        {
          "internalType": "address",
          "name": "_patientAddress",
          "type": "address"
        },
        {
          "internalType": "string",
          "name": "_hash",
          "type": "string"
        }
      ],
      "name": "setIPFSHash",
      "outputs": [],
      "stateMutability": "nonpayable",
      "type": "function"
    },
    {
      "inputs": [
        {
          "internalType": "address",
          "name": "newOwner",
          "type": "address"
        }
      ],
      "name": "transferOwnership",
      "outputs": [],
      "stateMutability": "nonpayable",
      "type": "function"
    }
  ],
  "bytecode": "0x608060405234801561001057600080fd5b5060405161069f38038061069f83398101604081905261002f916100be565b806001600160a01b03811661005e57604051631e4fbdf760e01b81526000600482015260240160405180910390fd5b6100678161006e565b50506100ee565b600080546001600160a01b038381166001600160a01b0319831681178455604051919092169283917f8be0079c531659141344cd1fd0a4f28419497f9722a3daafe3b4186f6b6457e09190a35050565b6000602082840312156100d057600080fd5b81516001600160a01b03811681146100e757600080fd5b9392505050565b6105a2806100fd6000396000f3fe608060405234801561001057600080fd5b50600436106100575760003560e01c806327237f0c1461005c578063715018a6146100715780638da5cb5b14610079578063cb0ab42514610099578063f2fde38b146100b9575b600080fd5b61006f61006a3660046102ee565b6100cc565b005b61006f61013c565b6000546040516001600160a01b0390911681526020015b60405180910390f35b6100ac6100a73660046103b0565b610150565b60405161009091906103d2565b61006f6100c73660046103b0565b6101fc565b6100d461023f565b6001600160a01b03821660009081526001602052604090206100f682826104ac565b50816001600160a01b03167f4c740b73e541b8519dbd84ec82d0b5d83fe37ae05b2699143f032928ca8dee6b8260405161013091906103d2565b60405180910390a25050565b61014461023f565b61014e600061026c565b565b6001600160a01b038116600090815260016020526040902080546060919061017790610421565b80601f01602080910402602001604051908101604052809291908181526020018280546101a390610421565b80156101f05780601f106101c5576101008083540402835291602001916101f0565b820191906000526020600020905b8154815290600101906020018083116101d357829003601f168201915b50505050509050919050565b61020461023f565b6001600160a01b03811661023357604051631e4fbdf760e01b8152600060048201526024015b60405180910390fd5b61023c8161026c565b50565b6000546001600160a01b0316331461014e5760405163118cdaa760e01b815233600482015260240161022a565b600080546001600160a01b038381166001600160a01b0319831681178455604051919092169283917f8be0079c531659141344cd1fd0a4f28419497f9722a3daafe3b4186f6b6457e09190a35050565b80356001600160a01b03811681146102d357600080fd5b919050565b634e487b7160e01b600052604160045260246000fd5b6000806040838503121561030157600080fd5b61030a836102bc565b9150602083013567ffffffffffffffff8082111561032757600080fd5b818501915085601f83011261033b57600080fd5b81358181111561034d5761034d6102d8565b604051601f8201601f19908116603f01168101908382118183101715610375576103756102d8565b8160405282815288602084870101111561038e57600080fd5b8260208601602083013760006020848301015280955050505050509250929050565b6000602082840312156103c257600080fd5b6103cb826102bc565b9392505050565b60006020808352835180602085015260005b81811015610400578581018301518582016040015282016103e4565b506000604082860101526040601f19601f8301168501019250505092915050565b600181811c9082168061043557607f821691505b60208210810361045557634e487b7160e01b600052602260045260246000fd5b50919050565b601f8211156104a7576000816000526020600020601f850160051c810160208610156104845750805b601f850160051c820191505b818110156104a357828155600101610490565b5050505b505050565b815167ffffffffffffffff8111156104c6576104c66102d8565b6104da816104d48454610421565b8461045b565b602080601f83116001811461050f57600084156104f75750858301515b600019600386901b1c1916600185901b1785556104a3565b600085815260208120601f198616915b8281101561053e5788860151825594840194600190910190840161051f565b508582101561055c5787850151600019600388901b60f8161c191681555b5050505050600190811b0190555056fea2646970667358221220ddc8fe651b3991fd3197ffb59a3261e166a09edf9f9a5ed9659e64207549e9ab64736f6c63430008180033",
  "linkReferences": {},
  "deployedLinkReferences": {}
}