{
  "_format": "hh-sol-artifact-1",
  "contractName": "ComprehensivePatientData",
  "sourceName": "contracts/ComprehensivePatientData.sol",
  "abi": [
    {
      "inputs": [
        {
          "internalType": "address",
          "name": "initialOwner",
          "type": "address"
        }
      ],
      "stateMutability": "nonpayable",
      "type": "constructor"
    },
    {
      "inputs": [
        {
          "internalType": "address",
          "name": "owner",
          "type": "address"
        }
      ],
      "name": "OwnableInvalidOwner",
      "type": "error"
    },
    {
      "inputs": [
        {
          "internalType": "address",
          "name": "account",
          "type": "address"
        }
      ],
      "name": "OwnableUnauthorizedAccount",
      "type": "error"
    },
    {
      "anonymous": false,
      "inputs": [
        {
          "indexed": true,
          "internalType": "address",
          "name": "userAddress",
          "type": "address"
        },
        {
          "indexed": false,
          "internalType": "string",
          "name": "hash",
          "type": "string"
        }
      ],
      "name": "IPFSHashSet",
      "type": "event"
    },
    {
      "anonymous": false,
      "inputs": [
        {
          "indexed": true,
          "internalType": "address",
          "name": "previousOwner",
          "type": "address"
        },
        {
          "indexed": true,
          "internalType": "address",
          "name": "newOwner",
          "type": "address"
        }
      ],
      "name": "OwnershipTransferred",
      "type": "event"
    },
    {
      "anonymous": false,
      "inputs": [
        {
          "indexed": true,
          "internalType": "address",
          "name": "userAddress",
          "type": "address"
        },
        {
          "indexed": false,
          "internalType": "string",
          "name": "name",
          "type": "string"
        },
        {
          "indexed": false,
          "internalType": "string",
          "name": "phoneNumber",
          "type": "string"
        },
        {
          "indexed": false,
          "internalType": "uint256",
          "name": "age",
          "type": "uint256"
        }
      ],
      "name": "UserRegistered",
      "type": "event"
    },
    {
      "inputs": [
        {
          "internalType": "address",
          "name": "userAddress",
          "type": "address"
        }
      ],
      "name": "getIPFSHash",
      "outputs": [
        {
          "internalType": "string",
          "name": "",
          "type": "string"
        }
      ],
      "stateMutability": "view",
      "type": "function"
    },
    {
      "inputs": [
        {
          "internalType": "address",
          "name": "_userAddress",
          "type": "address"
        }
      ],
      "name": "getPublicUserInfo",
      "outputs": [
        {
          "internalType": "string",
          "name": "",
          "type": "string"
        },
        {
          "internalType": "string",
          "name": "",
          "type": "string"
        },
        {
          "internalType": "uint256",
          "name": "",
          "type": "uint256"
        }
      ],
      "stateMutability": "view",
      "type": "function"
    },
    {
      "inputs": [
        {
          "internalType": "address",
          "name": "userAddress",
          "type": "address"
        }
      ],
      "name": "getUserInfo",
      "outputs": [
        {
          "internalType": "string",
          "name": "",
          "type": "string"
        },
        {
          "internalType": "string",
          "name": "",
          "type": "string"
        },
        {
          "internalType": "string",
          "name": "",
          "type": "string"
        },
        {
          "internalType": "uint256",
          "name": "",
          "type": "uint256"
        }
      ],
      "stateMutability": "view",
      "type": "function"
    },
    {
      "inputs": [],
      "name": "owner",
      "outputs": [
        {
          "internalType": "address",
          "name": "",
          "type": "address"
        }
      ],
      "stateMutability": "view",
      "type": "function"
    },
    {
      "inputs": [
        {
          "internalType": "address",
          "name": "userAddress",
          "type": "address"
        },
        {
          "internalType": "string",
          "name": "_name",
          "type": "string"
        },
        {
          "internalType": "string",
          "name": "_phoneNumber",
          "type": "string"
        },
        {
          "internalType": "string",
          "name": "_ssn",
          "type": "string"
        },
        {
          "internalType": "uint256",
          "name": "_age",
          "type": "uint256"
        }
      ],
      "name": "registerUser",
      "outputs": [],
      "stateMutability": "nonpayable",
      "type": "function"
    },
    {
      "inputs": [],
      "name": "renounceOwnership",
      "outputs": [],
      "stateMutability": "nonpayable",
      "type": "function"
    },
    {
      "inputs": [
        {
          "internalType": "address",
          "name": "userAddress",
          "type": "address"
        },
        {
          "internalType": "string",
          "name": "hash",
          "type": "string"
        }
      ],
      "name": "setIPFSHash",
      "outputs": [],
      "stateMutability": "nonpayable",
      "type": "function"
    },
    {
      "inputs": [
        {
          "internalType": "address",
          "name": "newOwner",
          "type": "address"
        }
      ],
      "name": "transferOwnership",
      "outputs": [],
      "stateMutability": "nonpayable",
      "type": "function"
    }
  ],
  "bytecode": "0x608060405234801561001057600080fd5b50604051610e03380380610e0383398101604081905261002f916100c0565b80806001600160a01b03811661005f57604051631e4fbdf760e01b81526000600482015260240160405180910390fd5b61006881610070565b5050506100f0565b600080546001600160a01b038381166001600160a01b0319831681178455604051919092169283917f8be0079c531659141344cd1fd0a4f28419497f9722a3daafe3b4186f6b6457e09190a35050565b6000602082840312156100d257600080fd5b81516001600160a01b03811681146100e957600080fd5b9392505050565b610d04806100ff6000396000f3fe608060405234801561001057600080fd5b50600436106100885760003560e01c80638da5cb5b1161005b5780638da5cb5b146100e9578063cb0ab42514610104578063e275820814610124578063f2fde38b1461014657600080fd5b806327237f0c1461008d5780636386c1c7146100a25780636f93dc56146100ce578063715018a6146100e1575b600080fd5b6100a061009b366004610998565b610159565b005b6100b56100b03660046109e6565b61016f565b6040516100c59493929190610a4e565b60405180910390f35b6100a06100dc366004610a99565b61018e565b6100a06101aa565b6000546040516001600160a01b0390911681526020016100c5565b6101176101123660046109e6565b6101be565b6040516100c59190610b3a565b6101376101323660046109e6565b6101cf565b6040516100c593929190610b4d565b6100a06101543660046109e6565b610323565b610161610366565b61016b8282610393565b5050565b6060806060600061017f856103fb565b93509350935093509193509193565b610196610366565b6101a385858585856105ef565b5050505050565b6101b2610366565b6101bc60006107dd565b565b60606101c98261082d565b92915050565b6001600160a01b03811660009081526001602081905260408220600381015481546060948594909392839291830191839061020990610b83565b80601f016020809104026020016040519081016040528092919081815260200182805461023590610b83565b80156102825780601f1061025757610100808354040283529160200191610282565b820191906000526020600020905b81548152906001019060200180831161026557829003601f168201915b5050505050925081805461029590610b83565b80601f01602080910402602001604051908101604052809291908181526020018280546102c190610b83565b801561030e5780601f106102e35761010080835404028352916020019161030e565b820191906000526020600020905b8154815290600101906020018083116102f157829003601f168201915b50505050509150935093509350509193909250565b61032b610366565b6001600160a01b03811661035a57604051631e4fbdf760e01b8152600060048201526024015b60405180910390fd5b610363816107dd565b50565b6000546001600160a01b031633146101bc5760405163118cdaa760e01b8152336004820152602401610351565b6001600160a01b03821660009081526002602052604090206103b58282610c0e565b50816001600160a01b03167f4c740b73e541b8519dbd84ec82d0b5d83fe37ae05b2699143f032928ca8dee6b826040516103ef9190610b3a565b60405180910390a25050565b606080606060008060016000876001600160a01b03166001600160a01b031681526020019081526020016000209050806000018160010182600201836003015483805461044790610b83565b80601f016020809104026020016040519081016040528092919081815260200182805461047390610b83565b80156104c05780601f10610495576101008083540402835291602001916104c0565b820191906000526020600020905b8154815290600101906020018083116104a357829003601f168201915b505050505093508280546104d390610b83565b80601f01602080910402602001604051908101604052809291908181526020018280546104ff90610b83565b801561054c5780601f106105215761010080835404028352916020019161054c565b820191906000526020600020905b81548152906001019060200180831161052f57829003601f168201915b5050505050925081805461055f90610b83565b80601f016020809104026020016040519081016040528092919081815260200182805461058b90610b83565b80156105d85780601f106105ad576101008083540402835291602001916105d8565b820191906000526020600020905b8154815290600101906020018083116105bb57829003601f168201915b505050505091509450945094509450509193509193565b6105f7610366565b600084511161063b5760405162461bcd60e51b815260206004820152601060248201526f13985b59481a5cc81c995c5d5a5c995960821b6044820152606401610351565b600083511161068c5760405162461bcd60e51b815260206004820152601860248201527f50686f6e65206e756d62657220697320726571756972656400000000000000006044820152606401610351565b60008251116106cf5760405162461bcd60e51b815260206004820152600f60248201526e14d4d3881a5cc81c995c5d5a5c9959608a1b6044820152606401610351565b600081116107115760405162461bcd60e51b815260206004820152600f60248201526e1059d9481a5cc81c995c5d5a5c9959608a1b6044820152606401610351565b604080516080810182528581526020808201869052818301859052606082018490526001600160a01b0388166000908152600190915291909120815181906107599082610c0e565b506020820151600182019061076e9082610c0e565b50604082015160028201906107839082610c0e565b5060608201518160030155905050846001600160a01b03167fb43e07573ffd613ee4cb14f22ebd42b902fb524682771d8e82932bd48bcda2478585846040516107ce93929190610b4d565b60405180910390a25050505050565b600080546001600160a01b038381166001600160a01b0319831681178455604051919092169283917f8be0079c531659141344cd1fd0a4f28419497f9722a3daafe3b4186f6b6457e09190a35050565b6001600160a01b038116600090815260026020526040902080546060919061085490610b83565b80601f016020809104026020016040519081016040528092919081815260200182805461088090610b83565b80156108cd5780601f106108a2576101008083540402835291602001916108cd565b820191906000526020600020905b8154815290600101906020018083116108b057829003601f168201915b50505050509050919050565b80356001600160a01b03811681146108f057600080fd5b919050565b634e487b7160e01b600052604160045260246000fd5b600082601f83011261091c57600080fd5b813567ffffffffffffffff80821115610937576109376108f5565b604051601f8301601f19908116603f0116810190828211818310171561095f5761095f6108f5565b8160405283815286602085880101111561097857600080fd5b836020870160208301376000602085830101528094505050505092915050565b600080604083850312156109ab57600080fd5b6109b4836108d9565b9150602083013567ffffffffffffffff8111156109d057600080fd5b6109dc8582860161090b565b9150509250929050565b6000602082840312156109f857600080fd5b610a01826108d9565b9392505050565b6000815180845260005b81811015610a2e57602081850181015186830182015201610a12565b506000602082860101526020601f19601f83011685010191505092915050565b608081526000610a616080830187610a08565b8281036020840152610a738187610a08565b90508281036040840152610a878186610a08565b91505082606083015295945050505050565b600080600080600060a08688031215610ab157600080fd5b610aba866108d9565b9450602086013567ffffffffffffffff80821115610ad757600080fd5b610ae389838a0161090b565b95506040880135915080821115610af957600080fd5b610b0589838a0161090b565b94506060880135915080821115610b1b57600080fd5b50610b288882890161090b565b95989497509295608001359392505050565b602081526000610a016020830184610a08565b606081526000610b606060830186610a08565b8281036020840152610b728186610a08565b915050826040830152949350505050565b600181811c90821680610b9757607f821691505b602082108103610bb757634e487b7160e01b600052602260045260246000fd5b50919050565b601f821115610c09576000816000526020600020601f850160051c81016020861015610be65750805b601f850160051c820191505b81811015610c0557828155600101610bf2565b5050505b505050565b815167ffffffffffffffff811115610c2857610c286108f5565b610c3c81610c368454610b83565b84610bbd565b602080601f831160018114610c715760008415610c595750858301515b600019600386901b1c1916600185901b178555610c05565b600085815260208120601f198616915b82811015610ca057888601518255948401946001909101908401610c81565b5085821015610cbe5787850151600019600388901b60f8161c191681555b5050505050600190811b0190555056fea2646970667358221220ffd96fba800fc79d6012caab4d442688d36a39950779cc76bcf7d86126a7ab6b64736f6c63430008180033",
  "linkReferences": {},
  "deployedLinkReferences": {}
}