{
  "_format": "hh-sol-artifact-1",
  "contractName": "ComprehensivePatientData",
  "sourceName": "contracts/ComprehensivePatientData.sol",
  "abi": [
    {
      "inputs": [
        {
          "internalType": "address",
          "name": "initialOwner",
          "type": "address"
        }
      ],
      "stateMutability": "nonpayable",
      "type": "constructor"
    },
    {
      "inputs": [
        {
          "internalType": "address",
          "name": "owner",
          "type": "address"
        }
      ],
      "name": "OwnableInvalidOwner",
      "type": "error"
    },
    {
      "inputs": [
        {
          "internalType": "address",
          "name": "account",
          "type": "address"
        }
      ],
      "name": "OwnableUnauthorizedAccount",
      "type": "error"
    },
    {
      "anonymous": false,
      "inputs": [
        {
          "indexed": true,
          "internalType": "address",
          "name": "userAddress",
          "type": "address"
        },
        {
          "indexed": false,
          "internalType": "string",
          "name": "hash",
          "type": "string"
        }
      ],
      "name": "IPFSHashSet",
      "type": "event"
    },
    {
      "anonymous": false,
      "inputs": [
        {
          "indexed": true,
          "internalType": "address",
          "name": "previousOwner",
          "type": "address"
        },
        {
          "indexed": true,
          "internalType": "address",
          "name": "newOwner",
          "type": "address"
        }
      ],
      "name": "OwnershipTransferred",
      "type": "event"
    },
    {
      "anonymous": false,
      "inputs": [
        {
          "indexed": true,
          "internalType": "address",
          "name": "patient",
          "type": "address"
        },
        {
          "indexed": true,
          "internalType": "address",
          "name": "doctor",
          "type": "address"
        }
      ],
      "name": "PatientAssigned",
      "type": "event"
    },
    {
      "anonymous": false,
      "inputs": [
        {
          "indexed": true,
          "internalType": "address",
          "name": "patient",
          "type": "address"
        },
        {
          "indexed": true,
          "internalType": "address",
          "name": "oldDoctor",
          "type": "address"
        },
        {
          "indexed": true,
          "internalType": "address",
          "name": "newDoctor",
          "type": "address"
        }
      ],
      "name": "PatientTransferred",
      "type": "event"
    },
    {
      "anonymous": false,
      "inputs": [
        {
          "indexed": true,
          "internalType": "address",
          "name": "userAddress",
          "type": "address"
        },
        {
          "indexed": false,
          "internalType": "string",
          "name": "name",
          "type": "string"
        },
        {
          "indexed": false,
          "internalType": "string",
          "name": "phoneNumber",
          "type": "string"
        },
        {
          "indexed": false,
          "internalType": "uint256",
          "name": "age",
          "type": "uint256"
        }
      ],
      "name": "UserRegistered",
      "type": "event"
    },
    {
      "inputs": [
        {
          "internalType": "address",
          "name": "userAddress",
          "type": "address"
        }
      ],
      "name": "getIPFSHash",
      "outputs": [
        {
          "internalType": "string",
          "name": "",
          "type": "string"
        }
      ],
      "stateMutability": "view",
      "type": "function"
    },
    {
      "inputs": [
        {
          "internalType": "address",
          "name": "patientAddress",
          "type": "address"
        }
      ],
      "name": "getPatientData",
      "outputs": [
        {
          "internalType": "string",
          "name": "",
          "type": "string"
        }
      ],
      "stateMutability": "view",
      "type": "function"
    },
    {
      "inputs": [
        {
          "internalType": "address",
          "name": "patientAddress",
          "type": "address"
        }
      ],
      "name": "getPatientDetails",
      "outputs": [
        {
          "internalType": "string",
          "name": "name",
          "type": "string"
        },
        {
          "internalType": "string",
          "name": "phoneNumber",
          "type": "string"
        },
        {
          "internalType": "string",
          "name": "ssn",
          "type": "string"
        },
        {
          "internalType": "uint256",
          "name": "age",
          "type": "uint256"
        }
      ],
      "stateMutability": "view",
      "type": "function"
    },
    {
      "inputs": [
        {
          "internalType": "address",
          "name": "_userAddress",
          "type": "address"
        }
      ],
      "name": "getPublicUserInfo",
      "outputs": [
        {
          "internalType": "string",
          "name": "",
          "type": "string"
        },
        {
          "internalType": "string",
          "name": "",
          "type": "string"
        },
        {
          "internalType": "uint256",
          "name": "",
          "type": "uint256"
        }
      ],
      "stateMutability": "view",
      "type": "function"
    },
    {
      "inputs": [
        {
          "internalType": "address",
          "name": "_userAddress",
          "type": "address"
        }
      ],
      "name": "getUserInfo",
      "outputs": [
        {
          "internalType": "string",
          "name": "",
          "type": "string"
        },
        {
          "internalType": "string",
          "name": "",
          "type": "string"
        },
        {
          "internalType": "string",
          "name": "",
          "type": "string"
        },
        {
          "internalType": "uint256",
          "name": "",
          "type": "uint256"
        }
      ],
      "stateMutability": "view",
      "type": "function"
    },
    {
      "inputs": [],
      "name": "owner",
      "outputs": [
        {
          "internalType": "address",
          "name": "",
          "type": "address"
        }
      ],
      "stateMutability": "view",
      "type": "function"
    },
    {
      "inputs": [
        {
          "internalType": "address",
          "name": "patientAddress",
          "type": "address"
        },
        {
          "internalType": "address",
          "name": "doctorAddress",
          "type": "address"
        },
        {
          "internalType": "string",
          "name": "_name",
          "type": "string"
        },
        {
          "internalType": "string",
          "name": "_phoneNumber",
          "type": "string"
        },
        {
          "internalType": "string",
          "name": "_ssn",
          "type": "string"
        },
        {
          "internalType": "uint256",
          "name": "_age",
          "type": "uint256"
        }
      ],
      "name": "registerPatient",
      "outputs": [],
      "stateMutability": "nonpayable",
      "type": "function"
    },
    {
      "inputs": [
        {
          "internalType": "address",
          "name": "userAddress",
          "type": "address"
        },
        {
          "internalType": "string",
          "name": "_name",
          "type": "string"
        },
        {
          "internalType": "string",
          "name": "_phoneNumber",
          "type": "string"
        },
        {
          "internalType": "string",
          "name": "_ssn",
          "type": "string"
        },
        {
          "internalType": "uint256",
          "name": "_age",
          "type": "uint256"
        }
      ],
      "name": "registerUser",
      "outputs": [],
      "stateMutability": "nonpayable",
      "type": "function"
    },
    {
      "inputs": [],
      "name": "renounceOwnership",
      "outputs": [],
      "stateMutability": "nonpayable",
      "type": "function"
    },
    {
      "inputs": [
        {
          "internalType": "address",
          "name": "userAddress",
          "type": "address"
        },
        {
          "internalType": "string",
          "name": "hash",
          "type": "string"
        }
      ],
      "name": "setIPFSHash",
      "outputs": [],
      "stateMutability": "nonpayable",
      "type": "function"
    },
    {
      "inputs": [
        {
          "internalType": "address",
          "name": "patientAddress",
          "type": "address"
        },
        {
          "internalType": "string",
          "name": "ipfsHash",
          "type": "string"
        }
      ],
      "name": "setPatientData",
      "outputs": [],
      "stateMutability": "nonpayable",
      "type": "function"
    },
    {
      "inputs": [
        {
          "internalType": "address",
          "name": "receiver",
          "type": "address"
        },
        {
          "internalType": "string",
          "name": "data",
          "type": "string"
        }
      ],
      "name": "transferData",
      "outputs": [],
      "stateMutability": "nonpayable",
      "type": "function"
    },
    {
      "inputs": [
        {
          "internalType": "address",
          "name": "newOwner",
          "type": "address"
        }
      ],
      "name": "transferOwnership",
      "outputs": [],
      "stateMutability": "nonpayable",
      "type": "function"
    },
    {
      "inputs": [
        {
          "internalType": "address",
          "name": "patientAddress",
          "type": "address"
        },
        {
          "internalType": "address",
          "name": "newDoctorAddress",
          "type": "address"
        }
      ],
      "name": "transferPatient",
      "outputs": [],
      "stateMutability": "nonpayable",
      "type": "function"
    }
  ],
  "bytecode": "0x608060405234801561001057600080fd5b506040516112f23803806112f283398101604081905261002f916100c0565b80806001600160a01b03811661005f57604051631e4fbdf760e01b81526000600482015260240160405180910390fd5b61006881610070565b5050506100f0565b600080546001600160a01b038381166001600160a01b0319831681178455604051919092169283917f8be0079c531659141344cd1fd0a4f28419497f9722a3daafe3b4186f6b6457e09190a35050565b6000602082840312156100d257600080fd5b81516001600160a01b03811681146100e957600080fd5b9392505050565b6111f3806100ff6000396000f3fe608060405234801561001057600080fd5b50600436106100ea5760003560e01c8063cab4594e1161008c578063ecf81e9e11610066578063ecf81e9e146101e1578063efe2ccc1146101f4578063f27c513714610207578063f2fde38b1461021a57600080fd5b8063cab4594e14610199578063cb0ab425146101ac578063e2758208146101bf57600080fd5b80636386c1c7116100c85780636386c1c7146101405780636f93dc5614610163578063715018a6146101765780638da5cb5b1461017e57600080fd5b806310d11625146100ef57806327237f0c1461010457806348e8185214610117575b600080fd5b6101026100fd366004610cd7565b61022d565b005b610102610112366004610dad565b610397565b61012a610125366004610dfb565b6103ff565b6040516101379190610e63565b60405180910390f35b61015361014e366004610dfb565b61045f565b6040516101379493929190610e76565b610102610171366004610ec1565b610653565b610102610841565b6000546040516001600160a01b039091168152602001610137565b6101026101a7366004610dad565b610855565b61012a6101ba366004610dfb565b61086b565b6101d26101cd366004610dfb565b610917565b60405161013793929190610f62565b6101026101ef366004610f98565b610a6b565b610153610202366004610dfb565b610b43565b610102610215366004610dad565b610bb2565b610102610228366004610dfb565b610c00565b6001600160a01b03808316600090815260036020526040902054163381148061026057506000546001600160a01b031633145b6102d75760405162461bcd60e51b815260206004820152603b60248201527f4f6e6c79207468652063757272656e7420646f63746f72206f72206f776e657260448201527f2063616e207472616e7366657220746869732070617469656e742e000000000060648201526084015b60405180910390fd5b6001600160a01b0382166103385760405162461bcd60e51b815260206004820152602260248201527f4e657720646f63746f7220616464726573732063616e6e6f74206265207a6572604482015261379760f11b60648201526084016102ce565b6001600160a01b0383811660008181526003602052604080822080546001600160a01b03191687861690811790915590519093851692917f86f48fc9e2e72269aef95d8e31b4b93b13cd317c25a94b53af54fdc140ceebc191a4505050565b6001600160a01b03821660009081526002602052604090206103b982826110d5565b50816001600160a01b03167f4c740b73e541b8519dbd84ec82d0b5d83fe37ae05b2699143f032928ca8dee6b826040516103f39190610e63565b60405180910390a25050565b6001600160a01b038181166000908152600360205260409020546060911633148061043457506000546001600160a01b031633145b6104505760405162461bcd60e51b81526004016102ce90611195565b6104598261086b565b92915050565b606080606060008060016000876001600160a01b03166001600160a01b03168152602001908152602001600020905080600001816001018260020183600301548380546104ab9061104a565b80601f01602080910402602001604051908101604052809291908181526020018280546104d79061104a565b80156105245780601f106104f957610100808354040283529160200191610524565b820191906000526020600020905b81548152906001019060200180831161050757829003601f168201915b505050505093508280546105379061104a565b80601f01602080910402602001604051908101604052809291908181526020018280546105639061104a565b80156105b05780601f10610585576101008083540402835291602001916105b0565b820191906000526020600020905b81548152906001019060200180831161059357829003601f168201915b505050505092508180546105c39061104a565b80601f01602080910402602001604051908101604052809291908181526020018280546105ef9061104a565b801561063c5780601f106106115761010080835404028352916020019161063c565b820191906000526020600020905b81548152906001019060200180831161061f57829003601f168201915b505050505091509450945094509450509193509193565b61065b610c3e565b600084511161069f5760405162461bcd60e51b815260206004820152601060248201526f13985b59481a5cc81c995c5d5a5c995960821b60448201526064016102ce565b60008351116106f05760405162461bcd60e51b815260206004820152601860248201527f50686f6e65206e756d626572206973207265717569726564000000000000000060448201526064016102ce565b60008251116107335760405162461bcd60e51b815260206004820152600f60248201526e14d4d3881a5cc81c995c5d5a5c9959608a1b60448201526064016102ce565b600081116107755760405162461bcd60e51b815260206004820152600f60248201526e1059d9481a5cc81c995c5d5a5c9959608a1b60448201526064016102ce565b604080516080810182528581526020808201869052818301859052606082018490526001600160a01b0388166000908152600190915291909120815181906107bd90826110d5565b50602082015160018201906107d290826110d5565b50604082015160028201906107e790826110d5565b5060608201518160030155905050846001600160a01b03167fb43e07573ffd613ee4cb14f22ebd42b902fb524682771d8e82932bd48bcda24785858460405161083293929190610f62565b60405180910390a25050505050565b610849610c3e565b6108536000610c6b565b565b61085d610c3e565b6108678282610397565b5050565b6001600160a01b03811660009081526002602052604090208054606091906108929061104a565b80601f01602080910402602001604051908101604052809291908181526020018280546108be9061104a565b801561090b5780601f106108e05761010080835404028352916020019161090b565b820191906000526020600020905b8154815290600101906020018083116108ee57829003601f168201915b50505050509050919050565b6001600160a01b0381166000908152600160208190526040822060038101548154606094859490939283929183019183906109519061104a565b80601f016020809104026020016040519081016040528092919081815260200182805461097d9061104a565b80156109ca5780601f1061099f576101008083540402835291602001916109ca565b820191906000526020600020905b8154815290600101906020018083116109ad57829003601f168201915b505050505092508180546109dd9061104a565b80601f0160208091040260200160405190810160405280929190818152602001828054610a099061104a565b8015610a565780601f10610a2b57610100808354040283529160200191610a56565b820191906000526020600020905b815481529060010190602001808311610a3957829003601f168201915b50505050509150935093509350509193909250565b610a73610c3e565b6001600160a01b038681166000908152600360205260409020541615610adb5760405162461bcd60e51b815260206004820152601e60248201527f50617469656e7420697320616c726561647920726567697374657265642e000060448201526064016102ce565b610ae88685858585610653565b6001600160a01b0386811660008181526003602052604080822080546001600160a01b031916948a169485179055517ff08a458b4ffce0413b79bd62209946a03451572988f5a2766879093aa32efc559190a3505050505050565b6001600160a01b0381811660009081526003602052604081205460609283928392909116331480610b7e57506000546001600160a01b031633145b610b9a5760405162461bcd60e51b81526004016102ce90611195565b610ba38561045f565b93509350935093509193509193565b6001600160a01b0382811660009081526003602052604090205416331480610be457506000546001600160a01b031633145b61085d5760405162461bcd60e51b81526004016102ce90611195565b610c08610c3e565b6001600160a01b038116610c3257604051631e4fbdf760e01b8152600060048201526024016102ce565b610c3b81610c6b565b50565b6000546001600160a01b031633146108535760405163118cdaa760e01b81523360048201526024016102ce565b600080546001600160a01b038381166001600160a01b0319831681178455604051919092169283917f8be0079c531659141344cd1fd0a4f28419497f9722a3daafe3b4186f6b6457e09190a35050565b80356001600160a01b0381168114610cd257600080fd5b919050565b60008060408385031215610cea57600080fd5b610cf383610cbb565b9150610d0160208401610cbb565b90509250929050565b634e487b7160e01b600052604160045260246000fd5b600082601f830112610d3157600080fd5b813567ffffffffffffffff80821115610d4c57610d4c610d0a565b604051601f8301601f19908116603f01168101908282118183101715610d7457610d74610d0a565b81604052838152866020858801011115610d8d57600080fd5b836020870160208301376000602085830101528094505050505092915050565b60008060408385031215610dc057600080fd5b610dc983610cbb565b9150602083013567ffffffffffffffff811115610de557600080fd5b610df185828601610d20565b9150509250929050565b600060208284031215610e0d57600080fd5b610e1682610cbb565b9392505050565b6000815180845260005b81811015610e4357602081850181015186830182015201610e27565b506000602082860101526020601f19601f83011685010191505092915050565b602081526000610e166020830184610e1d565b608081526000610e896080830187610e1d565b8281036020840152610e9b8187610e1d565b90508281036040840152610eaf8186610e1d565b91505082606083015295945050505050565b600080600080600060a08688031215610ed957600080fd5b610ee286610cbb565b9450602086013567ffffffffffffffff80821115610eff57600080fd5b610f0b89838a01610d20565b95506040880135915080821115610f2157600080fd5b610f2d89838a01610d20565b94506060880135915080821115610f4357600080fd5b50610f5088828901610d20565b95989497509295608001359392505050565b606081526000610f756060830186610e1d565b8281036020840152610f878186610e1d565b915050826040830152949350505050565b60008060008060008060c08789031215610fb157600080fd5b610fba87610cbb565b9550610fc860208801610cbb565b9450604087013567ffffffffffffffff80821115610fe557600080fd5b610ff18a838b01610d20565b9550606089013591508082111561100757600080fd5b6110138a838b01610d20565b9450608089013591508082111561102957600080fd5b5061103689828a01610d20565b92505060a087013590509295509295509295565b600181811c9082168061105e57607f821691505b60208210810361107e57634e487b7160e01b600052602260045260246000fd5b50919050565b601f8211156110d0576000816000526020600020601f850160051c810160208610156110ad5750805b601f850160051c820191505b818110156110cc578281556001016110b9565b5050505b505050565b815167ffffffffffffffff8111156110ef576110ef610d0a565b611103816110fd845461104a565b84611084565b602080601f83116001811461113857600084156111205750858301515b600019600386901b1c1916600185901b1785556110cc565b600085815260208120601f198616915b8281101561116757888601518255948401946001909101908401611148565b50858210156111855787850151600019600388901b60f8161c191681555b5050505050600190811b01905550565b6020808252600e908201526d20b1b1b2b9b9903232b734b2b21760911b60408201526060019056fea2646970667358221220e3fd083a1b679db9f7280610b26810945ea43ec324c2cc216ab12ac3abade04a64736f6c63430008180033",
  "linkReferences": {},
  "deployedLinkReferences": {}
}