{
  "_format": "hh-sol-artifact-1",
  "contractName": "IPFSData",
  "sourceName": "contracts/IPFSData.sol",
  "abi": [
    {
      "anonymous": false,
      "inputs": [
        {
          "indexed": true,
          "internalType": "address",
          "name": "userAddress",
          "type": "address"
        },
        {
          "indexed": false,
          "internalType": "string",
          "name": "hash",
          "type": "string"
        }
      ],
      "name": "IPFSHashSet",
      "type": "event"
    },
    {
      "inputs": [
        {
          "internalType": "address",
          "name": "userAddress",
          "type": "address"
        }
      ],
      "name": "getIPFSHash",
      "outputs": [
        {
          "internalType": "string",
          "name": "",
          "type": "string"
        }
      ],
      "stateMutability": "view",
      "type": "function"
    },
    {
      "inputs": [
        {
          "internalType": "address",
          "name": "userAddress",
          "type": "address"
        },
        {
          "internalType": "string",
          "name": "hash",
          "type": "string"
        }
      ],
      "name": "setIPFSHash",
      "outputs": [],
      "stateMutability": "nonpayable",
      "type": "function"
    }
  ],
  "bytecode": "0x608060405234801561001057600080fd5b50610473806100206000396000f3fe608060405234801561001057600080fd5b50600436106100365760003560e01c806327237f0c1461003b578063cb0ab42514610050575b600080fd5b61004e6100493660046101bf565b610079565b005b61006361005e366004610281565b6100e1565b60405161007091906102a3565b60405180910390f35b6001600160a01b038216600090815260208190526040902061009b828261037d565b50816001600160a01b03167f4c740b73e541b8519dbd84ec82d0b5d83fe37ae05b2699143f032928ca8dee6b826040516100d591906102a3565b60405180910390a25050565b6001600160a01b0381166000908152602081905260409020805460609190610108906102f2565b80601f0160208091040260200160405190810160405280929190818152602001828054610134906102f2565b80156101815780601f1061015657610100808354040283529160200191610181565b820191906000526020600020905b81548152906001019060200180831161016457829003601f168201915b50505050509050919050565b80356001600160a01b03811681146101a457600080fd5b919050565b634e487b7160e01b600052604160045260246000fd5b600080604083850312156101d257600080fd5b6101db8361018d565b9150602083013567ffffffffffffffff808211156101f857600080fd5b818501915085601f83011261020c57600080fd5b81358181111561021e5761021e6101a9565b604051601f8201601f19908116603f01168101908382118183101715610246576102466101a9565b8160405282815288602084870101111561025f57600080fd5b8260208601602083013760006020848301015280955050505050509250929050565b60006020828403121561029357600080fd5b61029c8261018d565b9392505050565b60006020808352835180602085015260005b818110156102d1578581018301518582016040015282016102b5565b506000604082860101526040601f19601f8301168501019250505092915050565b600181811c9082168061030657607f821691505b60208210810361032657634e487b7160e01b600052602260045260246000fd5b50919050565b601f821115610378576000816000526020600020601f850160051c810160208610156103555750805b601f850160051c820191505b8181101561037457828155600101610361565b5050505b505050565b815167ffffffffffffffff811115610397576103976101a9565b6103ab816103a584546102f2565b8461032c565b602080601f8311600181146103e057600084156103c85750858301515b600019600386901b1c1916600185901b178555610374565b600085815260208120601f198616915b8281101561040f578886015182559484019460019091019084016103f0565b508582101561042d5787850151600019600388901b60f8161c191681555b5050505050600190811b0190555056fea2646970667358221220b2bdfcf326ce6dbb5324fc82df1dad97459e537f0bf29c0409e240af037be40364736f6c63430008180033",
  "linkReferences": {},
  "deployedLinkReferences": {}
}