{
  "_format": "hh-sol-artifact-1",
  "contractName": "UserData",
  "sourceName": "contracts/UserData.sol",
  "abi": [
    {
      "inputs": [
        {
          "internalType": "address",
          "name": "initialOwner",
          "type": "address"
        }
      ],
      "stateMutability": "nonpayable",
      "type": "constructor"
    },
    {
      "inputs": [
        {
          "internalType": "address",
          "name": "owner",
          "type": "address"
        }
      ],
      "name": "OwnableInvalidOwner",
      "type": "error"
    },
    {
      "inputs": [
        {
          "internalType": "address",
          "name": "account",
          "type": "address"
        }
      ],
      "name": "OwnableUnauthorizedAccount",
      "type": "error"
    },
    {
      "anonymous": false,
      "inputs": [
        {
          "indexed": true,
          "internalType": "address",
          "name": "previousOwner",
          "type": "address"
        },
        {
          "indexed": true,
          "internalType": "address",
          "name": "newOwner",
          "type": "address"
        }
      ],
      "name": "OwnershipTransferred",
      "type": "event"
    },
    {
      "anonymous": false,
      "inputs": [
        {
          "indexed": true,
          "internalType": "address",
          "name": "userAddress",
          "type": "address"
        },
        {
          "indexed": false,
          "internalType": "string",
          "name": "name",
          "type": "string"
        },
        {
          "indexed": false,
          "internalType": "string",
          "name": "phoneNumber",
          "type": "string"
        },
        {
          "indexed": false,
          "internalType": "uint256",
          "name": "age",
          "type": "uint256"
        }
      ],
      "name": "UserRegistered",
      "type": "event"
    },
    {
      "inputs": [
        {
          "internalType": "address",
          "name": "_userAddress",
          "type": "address"
        }
      ],
      "name": "getPublicUserInfo",
      "outputs": [
        {
          "internalType": "string",
          "name": "",
          "type": "string"
        },
        {
          "internalType": "string",
          "name": "",
          "type": "string"
        },
        {
          "internalType": "uint256",
          "name": "",
          "type": "uint256"
        }
      ],
      "stateMutability": "view",
      "type": "function"
    },
    {
      "inputs": [
        {
          "internalType": "address",
          "name": "_userAddress",
          "type": "address"
        }
      ],
      "name": "getUserInfo",
      "outputs": [
        {
          "internalType": "string",
          "name": "",
          "type": "string"
        },
        {
          "internalType": "string",
          "name": "",
          "type": "string"
        },
        {
          "internalType": "string",
          "name": "",
          "type": "string"
        },
        {
          "internalType": "uint256",
          "name": "",
          "type": "uint256"
        }
      ],
      "stateMutability": "view",
      "type": "function"
    },
    {
      "inputs": [],
      "name": "owner",
      "outputs": [
        {
          "internalType": "address",
          "name": "",
          "type": "address"
        }
      ],
      "stateMutability": "view",
      "type": "function"
    },
    {
      "inputs": [
        {
          "internalType": "address",
          "name": "userAddress",
          "type": "address"
        },
        {
          "internalType": "string",
          "name": "_name",
          "type": "string"
        },
        {
          "internalType": "string",
          "name": "_phoneNumber",
          "type": "string"
        },
        {
          "internalType": "string",
          "name": "_ssn",
          "type": "string"
        },
        {
          "internalType": "uint256",
          "name": "_age",
          "type": "uint256"
        }
      ],
      "name": "registerUser",
      "outputs": [],
      "stateMutability": "nonpayable",
      "type": "function"
    },
    {
      "inputs": [],
      "name": "renounceOwnership",
      "outputs": [],
      "stateMutability": "nonpayable",
      "type": "function"
    },
    {
      "inputs": [
        {
          "internalType": "address",
          "name": "newOwner",
          "type": "address"
        }
      ],
      "name": "transferOwnership",
      "outputs": [],
      "stateMutability": "nonpayable",
      "type": "function"
    }
  ],
  "bytecode": "0x608060405234801561001057600080fd5b50604051610bd1380380610bd183398101604081905261002f916100be565b806001600160a01b03811661005e57604051631e4fbdf760e01b81526000600482015260240160405180910390fd5b6100678161006e565b50506100ee565b600080546001600160a01b038381166001600160a01b0319831681178455604051919092169283917f8be0079c531659141344cd1fd0a4f28419497f9722a3daafe3b4186f6b6457e09190a35050565b6000602082840312156100d057600080fd5b81516001600160a01b03811681146100e757600080fd5b9392505050565b610ad4806100fd6000396000f3fe608060405234801561001057600080fd5b50600436106100625760003560e01c80636386c1c7146100675780636f93dc5614610093578063715018a6146100a85780638da5cb5b146100b0578063e2758208146100cb578063f2fde38b146100ed575b600080fd5b61007a610075366004610726565b610100565b60405161008a949392919061078e565b60405180910390f35b6100a66100a136600461087c565b6102f4565b005b6100a66104e7565b6000546040516001600160a01b03909116815260200161008a565b6100de6100d9366004610726565b6104fb565b60405161008a9392919061091d565b6100a66100fb366004610726565b61064f565b606080606060008060016000876001600160a01b03166001600160a01b031681526020019081526020016000209050806000018160010182600201836003015483805461014c90610953565b80601f016020809104026020016040519081016040528092919081815260200182805461017890610953565b80156101c55780601f1061019a576101008083540402835291602001916101c5565b820191906000526020600020905b8154815290600101906020018083116101a857829003601f168201915b505050505093508280546101d890610953565b80601f016020809104026020016040519081016040528092919081815260200182805461020490610953565b80156102515780601f1061022657610100808354040283529160200191610251565b820191906000526020600020905b81548152906001019060200180831161023457829003601f168201915b5050505050925081805461026490610953565b80601f016020809104026020016040519081016040528092919081815260200182805461029090610953565b80156102dd5780601f106102b2576101008083540402835291602001916102dd565b820191906000526020600020905b8154815290600101906020018083116102c057829003601f168201915b505050505091509450945094509450509193509193565b6102fc61068d565b60008451116103455760405162461bcd60e51b815260206004820152601060248201526f13985b59481a5cc81c995c5d5a5c995960821b60448201526064015b60405180910390fd5b60008351116103965760405162461bcd60e51b815260206004820152601860248201527f50686f6e65206e756d6265722069732072657175697265640000000000000000604482015260640161033c565b60008251116103d95760405162461bcd60e51b815260206004820152600f60248201526e14d4d3881a5cc81c995c5d5a5c9959608a1b604482015260640161033c565b6000811161041b5760405162461bcd60e51b815260206004820152600f60248201526e1059d9481a5cc81c995c5d5a5c9959608a1b604482015260640161033c565b604080516080810182528581526020808201869052818301859052606082018490526001600160a01b03881660009081526001909152919091208151819061046390826109de565b506020820151600182019061047890826109de565b506040820151600282019061048d90826109de565b5060608201518160030155905050846001600160a01b03167fb43e07573ffd613ee4cb14f22ebd42b902fb524682771d8e82932bd48bcda2478585846040516104d89392919061091d565b60405180910390a25050505050565b6104ef61068d565b6104f960006106ba565b565b6001600160a01b03811660009081526001602081905260408220600381015481546060948594909392839291830191839061053590610953565b80601f016020809104026020016040519081016040528092919081815260200182805461056190610953565b80156105ae5780601f10610583576101008083540402835291602001916105ae565b820191906000526020600020905b81548152906001019060200180831161059157829003601f168201915b505050505092508180546105c190610953565b80601f01602080910402602001604051908101604052809291908181526020018280546105ed90610953565b801561063a5780601f1061060f5761010080835404028352916020019161063a565b820191906000526020600020905b81548152906001019060200180831161061d57829003601f168201915b50505050509150935093509350509193909250565b61065761068d565b6001600160a01b03811661068157604051631e4fbdf760e01b81526000600482015260240161033c565b61068a816106ba565b50565b6000546001600160a01b031633146104f95760405163118cdaa760e01b815233600482015260240161033c565b600080546001600160a01b038381166001600160a01b0319831681178455604051919092169283917f8be0079c531659141344cd1fd0a4f28419497f9722a3daafe3b4186f6b6457e09190a35050565b80356001600160a01b038116811461072157600080fd5b919050565b60006020828403121561073857600080fd5b6107418261070a565b9392505050565b6000815180845260005b8181101561076e57602081850181015186830182015201610752565b506000602082860101526020601f19601f83011685010191505092915050565b6080815260006107a16080830187610748565b82810360208401526107b38187610748565b905082810360408401526107c78186610748565b91505082606083015295945050505050565b634e487b7160e01b600052604160045260246000fd5b600082601f83011261080057600080fd5b813567ffffffffffffffff8082111561081b5761081b6107d9565b604051601f8301601f19908116603f01168101908282118183101715610843576108436107d9565b8160405283815286602085880101111561085c57600080fd5b836020870160208301376000602085830101528094505050505092915050565b600080600080600060a0868803121561089457600080fd5b61089d8661070a565b9450602086013567ffffffffffffffff808211156108ba57600080fd5b6108c689838a016107ef565b955060408801359150808211156108dc57600080fd5b6108e889838a016107ef565b945060608801359150808211156108fe57600080fd5b5061090b888289016107ef565b95989497509295608001359392505050565b6060815260006109306060830186610748565b82810360208401526109428186610748565b915050826040830152949350505050565b600181811c9082168061096757607f821691505b60208210810361098757634e487b7160e01b600052602260045260246000fd5b50919050565b601f8211156109d9576000816000526020600020601f850160051c810160208610156109b65750805b601f850160051c820191505b818110156109d5578281556001016109c2565b5050505b505050565b815167ffffffffffffffff8111156109f8576109f86107d9565b610a0c81610a068454610953565b8461098d565b602080601f831160018114610a415760008415610a295750858301515b600019600386901b1c1916600185901b1785556109d5565b600085815260208120601f198616915b82811015610a7057888601518255948401946001909101908401610a51565b5085821015610a8e5787850151600019600388901b60f8161c191681555b5050505050600190811b0190555056fea26469706673582212205e84fdc9d59ce6dd8b45ad1a0835e93f4c656268c873c47d6f45e40e0b00d0fb64736f6c63430008180033",
  "linkReferences": {},
  "deployedLinkReferences": {}
}