{
  "_format": "hh-sol-artifact-1",
  "contractName": "PatientData",
  "sourceName": "contracts/PatientDataBasic.sol",
  "abi": [
    {
      "inputs": [
        {
          "internalType": "address",
          "name": "initialOwner",
          "type": "address"
        }
      ],
      "stateMutability": "nonpayable",
      "type": "constructor"
    },
    {
      "inputs": [
        {
          "internalType": "address",
          "name": "owner",
          "type": "address"
        }
      ],
      "name": "OwnableInvalidOwner",
      "type": "error"
    },
    {
      "inputs": [
        {
          "internalType": "address",
          "name": "account",
          "type": "address"
        }
      ],
      "name": "OwnableUnauthorizedAccount",
      "type": "error"
    },
    {
      "anonymous": false,
      "inputs": [
        {
          "indexed": true,
          "internalType": "address",
          "name": "previousOwner",
          "type": "address"
        },
        {
          "indexed": true,
          "internalType": "address",
          "name": "newOwner",
          "type": "address"
        }
      ],
      "name": "OwnershipTransferred",
      "type": "event"
    },
    {
      "anonymous": false,
      "inputs": [
        {
          "indexed": true,
          "internalType": "address",
          "name": "patientAddress",
          "type": "address"
        },
        {
          "indexed": false,
          "internalType": "string",
          "name": "name",
          "type": "string"
        },
        {
          "indexed": false,
          "internalType": "uint256",
          "name": "age",
          "type": "uint256"
        }
      ],
      "name": "PatientDataSet",
      "type": "event"
    },
    {
      "inputs": [
        {
          "internalType": "address",
          "name": "_patientAddress",
          "type": "address"
        }
      ],
      "name": "getPatientData",
      "outputs": [
        {
          "internalType": "string",
          "name": "",
          "type": "string"
        },
        {
          "internalType": "uint256",
          "name": "",
          "type": "uint256"
        }
      ],
      "stateMutability": "view",
      "type": "function"
    },
    {
      "inputs": [],
      "name": "owner",
      "outputs": [
        {
          "internalType": "address",
          "name": "",
          "type": "address"
        }
      ],
      "stateMutability": "view",
      "type": "function"
    },
    {
      "inputs": [],
      "name": "renounceOwnership",
      "outputs": [],
      "stateMutability": "nonpayable",
      "type": "function"
    },
    {
      "inputs": [
        {
          "internalType": "address",
          "name": "_patientAddress",
          "type": "address"
        },
        {
          "internalType": "string",
          "name": "_name",
          "type": "string"
        },
        {
          "internalType": "uint256",
          "name": "_age",
          "type": "uint256"
        }
      ],
      "name": "setPatientData",
      "outputs": [],
      "stateMutability": "nonpayable",
      "type": "function"
    },
    {
      "inputs": [
        {
          "internalType": "address",
          "name": "newOwner",
          "type": "address"
        }
      ],
      "name": "transferOwnership",
      "outputs": [],
      "stateMutability": "nonpayable",
      "type": "function"
    }
  ],
  "bytecode": "0x608060405234801561001057600080fd5b5060405161071238038061071283398101604081905261002f916100be565b806001600160a01b03811661005e57604051631e4fbdf760e01b81526000600482015260240160405180910390fd5b6100678161006e565b50506100ee565b600080546001600160a01b038381166001600160a01b0319831681178455604051919092169283917f8be0079c531659141344cd1fd0a4f28419497f9722a3daafe3b4186f6b6457e09190a35050565b6000602082840312156100d057600080fd5b81516001600160a01b03811681146100e757600080fd5b9392505050565b610615806100fd6000396000f3fe608060405234801561001057600080fd5b50600436106100575760003560e01c806348e818521461005c578063715018a6146100865780638da5cb5b1461009057806395bddf0b146100ab578063f2fde38b146100be575b600080fd5b61006f61006a36600461033c565b6100d1565b60405161007d92919061035e565b60405180910390f35b61008e6101b4565b005b6000546040516001600160a01b03909116815260200161007d565b61008e6100b93660046103c9565b6101c8565b61008e6100cc36600461033c565b610260565b606060008060016000856001600160a01b03166001600160a01b0316815260200190815260200160002060405180604001604052908160008201805461011690610494565b80601f016020809104026020016040519081016040528092919081815260200182805461014290610494565b801561018f5780601f106101645761010080835404028352916020019161018f565b820191906000526020600020905b81548152906001019060200180831161017257829003601f168201915b5050509183525050600191909101546020918201528151910151909590945092505050565b6101bc6102a3565b6101c660006102d0565b565b6101d06102a3565b60408051808201825283815260208082018490526001600160a01b03861660009081526001909152919091208151819061020a908261051f565b5060208201518160010155905050826001600160a01b03167fa1b4d2f4293b61edad2a9fc06f9184a628e41a2a762a75826b3801b571d312b6838360405161025392919061035e565b60405180910390a2505050565b6102686102a3565b6001600160a01b03811661029757604051631e4fbdf760e01b8152600060048201526024015b60405180910390fd5b6102a0816102d0565b50565b6000546001600160a01b031633146101c65760405163118cdaa760e01b815233600482015260240161028e565b600080546001600160a01b038381166001600160a01b0319831681178455604051919092169283917f8be0079c531659141344cd1fd0a4f28419497f9722a3daafe3b4186f6b6457e09190a35050565b80356001600160a01b038116811461033757600080fd5b919050565b60006020828403121561034e57600080fd5b61035782610320565b9392505050565b604081526000835180604084015260005b8181101561038c576020818701810151606086840101520161036f565b506000606082850101526060601f19601f8301168401019150508260208301529392505050565b634e487b7160e01b600052604160045260246000fd5b6000806000606084860312156103de57600080fd5b6103e784610320565b9250602084013567ffffffffffffffff8082111561040457600080fd5b818601915086601f83011261041857600080fd5b81358181111561042a5761042a6103b3565b604051601f8201601f19908116603f01168101908382118183101715610452576104526103b3565b8160405282815289602084870101111561046b57600080fd5b826020860160208301376000602084830101528096505050505050604084013590509250925092565b600181811c908216806104a857607f821691505b6020821081036104c857634e487b7160e01b600052602260045260246000fd5b50919050565b601f82111561051a576000816000526020600020601f850160051c810160208610156104f75750805b601f850160051c820191505b8181101561051657828155600101610503565b5050505b505050565b815167ffffffffffffffff811115610539576105396103b3565b61054d816105478454610494565b846104ce565b602080601f831160018114610582576000841561056a5750858301515b600019600386901b1c1916600185901b178555610516565b600085815260208120601f198616915b828110156105b157888601518255948401946001909101908401610592565b50858210156105cf5787850151600019600388901b60f8161c191681555b5050505050600190811b0190555056fea264697066735822122093433c6e0317d9f33996c58ef125425209b0e1648c616ea6a67604834859d30a64736f6c63430008180033",
  "linkReferences": {},
  "deployedLinkReferences": {}
}